:020000040800F2
:1000000080040020A9240008B9240008BB240008AB
:10001000BD240008BF240008C1240008000000001F
:10002000000000000000000000000000C3240008E1
:10003000C524000800000000C7240008A52300080C
:10004000192500081D250008212500082525000880
:10005000292500082D250008312500083525000830
:10006000392500083D2500084125000845250008E0
:10007000492500084D250008512500085525000890
:10008000592500085D250008612500086525000840
:10009000692500086D2500087125000875250008F0
:1000A000792500087D2500088125000885250008A0
:1000B000E52000088D2500089125000895250008F9
:1000C000992500089D250008A1250008A525000800
:1000D000A9250008AD250008B1250008B5250008B0
:1000E000B9250008BD250008C125000870477047E4
:1000F0007047704700787047017070470020704764
:100100007047704770470200002A02D00A00002A98
:1001100008D1DFF82406DFF82416C160DFF82016C6
:10012000016103E0DFF81026D06011617047020022
:10013000002A02D00A00002A08D1DFF8FC05DFF807
:1001400004164161DFF80016816103E0DFF8E8255D
:10015000506191617047DFF8E02513889B05FAD55F
:100160000300002B02D00B00002B06D1DFF8DC05CA
:10017000D061DFF8DC05106201E0D06111627047E8
:10018000DFF8B42513889B05FAD50300002B02D0B5
:100190000B00002B06D1DFF8BC055062DFF8B80574
:1001A000906201E05062916270473EB50C00002100
:1001B000694600220023C1E90023C0B2002817D0FD
:1001C000022828D018D3042829D020D306282ED0DE
:1001D00029D3082848D039D30A2857D053D30C281C
:1001E0005CD057D30E285ED059D30F2868D074E066
:1001F00000F0A0F800203EBD002C03D00094009831
:10020000083001900199009800F0CFF8F3E72088BA
:1002100000F023F9EEE700F032F92080EAE72088C9
:1002200000F044F9E6E700F052F92080E2E7218887
:1002300089B2090AC9B24FF4985000F00BFB21882B
:10024000C9B24FF4A05000F005FBD3E74FF498502B
:1002500000F0CCFA0500EDB24FF4A05000F0C6FA61
:1002600010EB05202080C5E7DFF8CC0481782170F1
:10027000C17861700179A1704179E1708079207154
:1002800000206071B6E700F052F9B3E7200000F0FB
:1002900068F9AFE7200000F08EF9ABE7AAE7207815
:1002A00000F0C4F9A7E700F033F901005FF0FF3276
:1002B00049B2914202D15FF0FF309CE7207099E78C
:1002C00000F01AF901005FF0FF3249B2914202D109
:1002D0005FF0FF308FE720708CE75FF0FF308AE738
:1002E00010B50C00C0B2002808D002280FD00AD3E5
:1002F000042814D00FD3052815D018E0200000F0F2
:10030000C8F9002010BD200000F0ECF9F9E72078D2
:1003100000F028FAF6E700F039FA2070F1E7200043
:1003200000F039FAEDE7200000F04BFAE9E75FF062
:10033000FF30E7E700B585B0062203A94FF410604F
:1003400000F0BDFA042202A94FF4807000F0B7FA61
:10035000042201A94FF4A06000F0B1FA042269461A
:100360004FF4706000F0ABFA8021002000F072FAC8
:10037000002000F03BFA062203A94FF4106000F0C1
:10038000E1FA042202A94FF4807000F0DBFA0422A3
:1003900001A94FF4A06000F0D5FA042269464FF499
:1003A000706000F0CFFA05B000BD70B505000C001C
:1003B0000020FFF7BFFF002D25D00022002100E024
:1003C000491C080040B208280ADA080040B2285642
:1003D0008218100040B21128F2DB5FF0FF303BE0E2
:1003E00000260CE0300040B2295C300040B28200B0
:1003F00041F6087010EBC20000F02CFA761C3000B9
:1004000040B20828EEDB002C25D00022002100E0BD
:10041000491C080040B208280ADA080040B22056F9
:100420008218100040B21128F2DB5FF0FF3013E0B9
:1004300000250CE0280040B2215C280040B2820078
:1004400041F6086010EBC20000F004FA6D1C2800B1
:1004500040B20828EEDB002070BD10B5040021007A
:10046000A4B2240A11F0F0014FF4A85000F0F2F900
:100470002100C9B24FF4B85000F0ECF910BD10B52E
:100480000020002000204FF4A85000F0AFF9040035
:1004900014F0F0044FF4B85000F0A8F9C0B280B2E4
:1004A000E4B214EB0024200080B210BD10B50400AB
:1004B0002100A4B2240AC9B24FF4B05000F0CAF926
:1004C0002100C9B24FF4C05000F0C4F910BD10B5FE
:1004D0000020002000204FF4B05000F087F9040005
:1004E0004FF4C05000F082F9C0B280B2E4B214EB15
:1004F0000024200080B210BD10B500244FF4385005
:1005000000F074F9C00700D50124200040B210BDEE
:1005100080B500204FF4385000F068F910F0380032
:10052000302801D1012000E0002040B202BD80B59A
:100530004FF4385000F05AF910F07F000100C9B2B2
:100540004FF4385000F086F94FF4385000F04EF96F
:1005500050F080000100C9B24FF4385000F07AF931
:1005600001BD80B500210278012A02D151F040017D
:1005700001E011F0BF014278012A02D151F03801A7
:1005800011E0C278012A08D18078012802D151F007
:10059000180108E051F0080105E08078012802D137
:1005A00051F01001FFE7C9B24FF4385000F052F992
:1005B000FFF7BDFF01BD10B5040000204FF4385017
:1005C00000F014F90100C9B2890911F0010121708C
:1005D0000100C9B211F03801C9B2202901D038296F
:1005E00002D10121617001E0002161700100C9B2F6
:1005F00011F03801C9B2102903D0182901D02029DF
:1006000002D10121A17001E00021A170C0B210F05F
:100610003800C0B2082803D0182801D0202802D101
:100620000120E07001E00020E07010BD10B5040072
:1006300000204FF4385000F0D9F80100480602D4E9
:100640005FF0FF3024E011F0C7012000C0B20128A4
:1006500002D151F0300101E051F03801C9B24FF43C
:10066000385000F0F7F8FFF762FF4FF4385000F011
:10067000BDF8E4B2012C04D110F0300F06D00020F8
:1006800006E010F0380F01D0002001E05FF0FF30ED
:1006900010BD10B50400062221004FF4106000F0D8
:1006A00051F9042214F10E014FF4807000F04AF960
:1006B000042214F10A014FF4A06000F043F904226F
:1006C000A11D4FF4706000F03DF92448A17C017039
:1006D000E17C4170217D8170617DC170A07D2049E8
:1006E000087010BD10B50400062221004FF4106000
:1006F00000F0E5F8042214F10E014FF4807000F0D0
:10070000DEF8042214F10A014FF4A06000F0D7F8DB
:100710000422A11D4FF4706000F0D1F80F48017859
:10072000A1744178E17481782175C07860750C48B6
:100730000078A07510BD00001C000020ED0000082E
:10074000EF000008F1000008F3000008FD000008B9
:100750000101000803010008050100086C000020E9
:100760007A00002010B50400002014F0C50F02D05C
:100770005FF0FF3009E0002000F038F8044321006A
:10078000C9B2002000F066F8002010BD80B500203E
:1007900000F02CF802BD10B5040021784FF4D850B9
:1007A00000F058F8618889B2090AC9B24FF4C850FC
:1007B00000F050F86188C9B24FF4D05000F04AF808
:1007C00010BD38B504004FF4D85000F00FF8207079
:1007D0004FF4C85000F00AF80500EDB24FF4D050C5
:1007E00000F004F810EB0520608031BD38B505003D
:1007F000754CE068804760698047606A002802D0D5
:10080000A06A00280ED12800000CC0B2216A8847D7
:100810002800000AC0B2216A88472800C0B2216AB5
:1008200088470DE02800000C8DF800002800000A21
:100830008DF801008DF8025003216846A26A9047A6
:10084000E06980470500A06980472069804728004B
:10085000C0B232BD7CB506000C005B4DE868804735
:100860006869804756F00406A86A002812D1300053
:10087000000CC0B2296A88473000000AC0B2296A59
:1008800088473000C0B2296A88472000C0B2296A70
:1008900088470FE03000000C8DF800003000000A9F
:1008A0008DF801008DF802608DF803400421684640
:1008B000AA6A9047A86980472869804773BDF8B540
:1008C00007000C001500404EF068804770698047B3
:1008D000706A002802D0B06A00281BD13800000CD2
:1008E000C0B2316A88473800000AC0B2316A88470E
:1008F0003800C0B2316A884700273800290080B22A
:1009000089B2884219D2F0698047390089B26054AF
:100910007F1CF2E73800000C8DF800003800000A58
:100920008DF801008DF8027003216846B26A904785
:10093000290089B22000726A9047B0698047306907
:100940008047F1BDF8B507000C0015001E4EF06899
:1009500080477069804757F00407B06A00281BD1B0
:100960003800000CC0B2316A88473800000AC0B2B3
:10097000316A88473800C0B2316A8847002738009A
:10098000290080B289B2884219D2380080B2205C36
:10099000316A88477F1CF2E73800000C8DF80000B0
:1009A0003800000A8DF801008DF8027003216846B6
:1009B000B26A9047290089B22000B26A9047B069B4
:1009C000804730698047F1BD1C0000202DE9F843C5
:1009D00004000025002042F208062000C0B280007A
:1009E00016EBC000FFF702FF814642F208171FFA1C
:1009F00089F92000C0B2800017EBC000FFF7F6FEB7
:100A0000804618EB0928404680B2002814D0200008
:100A1000C0B2800016EBC0063000FFF7E7FE06000C
:100A2000B6B22000C0B2800017EBC0073800FFF755
:100A3000DDFE050015EB0625280080B21FFA88F8B8
:100A40004045C8D1280080B2BDE8F2832DE9F047C7
:100A500004000D00160000200020300080B20028A5
:100A60003CD042F208472000C0B2800017EBC00023
:100A7000FFF7BCFE814642F208585FFA89F9200070
:100A8000C0B2800018EBC000FFF7B0FE82461AEB40
:100A9000092A514689B22000C0B28000801CC000E3
:100AA00010EB0120320092B22900FFF74BFF16EB4A
:100AB0000A06310089B2090AC9B22000C0B280001A
:100AC00017EBC0073800FFF7C5FE3100C9B2E4B22A
:100AD000A00018EBC0084046FFF7BCFEBDE8F08759
:100AE0002DE9F84F92B01546029100211C9ADFF8CB
:100AF00004828DF82F2081469A4608910FF28C4689
:100B00004FF0FF370CE025280FD015F8011B029895
:100B1000C8470028029000F0D7800898401C089031
:100B200028780028EFD10898E6E000200021002274
:100B300005900691079201E041F0010115F8010FBF
:100B40002028F9D023280CD02B2804D02D2805D01C
:100B5000302809D0BAE041F00201EFE741F004018A
:100B6000ECE741F00801E9E741F01001E6E70A92FD
:100B700009E00A98404505DA00EB800402EB4402E4
:100B8000303A0A926D1C2A78A2F130000A28F0D37C
:100B900028782E2818BF099725D115F8010F2A2883
:100BA0000AD1DAF80000CAF800006D1C50F8042BD6
:100BB000CAF80000099216E02D280CBF6D1C002019
:100BC000002209920AE040B9099A424505DA02EB8F
:100BD000820403EB4403303B09936D1C2B78A3F193
:100BE00030020A2AEFD3ADF82C103046297800F0F5
:100BF000DFF908B115F8010B8DF82E009DF82E00D5
:100C0000682804BF2978682903D162208DF82E0056
:100C10006D1C0CA80490524615F8013B01A94846EA
:100C200000F098F800284FD10A980599079A069C79
:100C3000401A801A041B9DF82C0041070FD4202075
:100C4000002C8DF800000ADDA34601236A4601A9A5
:100C5000484600F084F9B8BBBBF1010BF5D1059B08
:100C60000CAA01A9484600F07AF968BBDDF81CB06F
:100C70003020BBF1000F8DF8000009DD01236A462A
:100C800001A9484600F06BF9F0B9BBF1010BF5D1B1
:100C9000069B039A01A9484600F061F9A0B99DF8A6
:100CA0002C0041077FF53CAF2020002C8DF8000080
:100CB0007FF736AF01236A4601A9484600F04FF995
:100CC00010B9641EF6D12BE7384615E02A287FF4C8
:100CD0004EAFDAF80020CAF8002052F8040BCAF828
:100CE000002000280A9003D540420A9041F00401F8
:100CF0006D1C4DE7CBCCCC0C13B0BDE8F08F622857
:100D00000ED0682819D1002A0A680A60106803D03A
:100D1000121D0A6000B217E0121D0A6080B217E0CF
:100D2000002A0A680A60106803D0121D0A6040B2E7
:100D30000AE0121D0A60C0B20AE0002A0A680A60CE
:100D4000106803D0121D0A60C1177047121D0A6097
:100D50000021704770B51C460D46252CEE681146E3
:100D600000F08480582C37D0632C0ED0642C18BF30
:100D7000692C14D06F2C2FD0702C49D0732C53D0E9
:100D8000752C18BF782C27D076E02869421C2A6180
:100D90000A680A6052F8043B0A60335476E095F81A
:100DA0002A000122FFF7ABFF0028286004D528693C
:100DB000411C29612D220DE0288D810704D5286969
:100DC000411C29612B2205E0C0071CD52869411C64
:100DD00029612022325416E095F82A000022FFF7FC
:100DE0008EFF286095F8280001070CD5286850B1BF
:100DF00044F02001782906D1286930213154401C63
:100E0000421C2A613454214628693044A86007E016
:100E10000868086050F8042B08602A60AE607821EA
:100E2000284600F035F831E00868086050F8044BB7
:100E30000860AC603CB900BF56A000F0C5F84FF0A8
:100E4000FF34201A70BD2E6A002E04D5204600F013
:100E5000DBF8044608E032460021204600F0F0F8B6
:100E6000002814BF041B34466C610FE02869411C44
:100E700029612522325409E02969481C286125226C
:100E80007254210002D0431C2B613454002070BDE9
:100E9000F0B402466F29D46808BF082605D041F097
:100EA0002000782814BF0A26102618251368642904
:100EB00018BF6929184602D1002B48BF4042F0B93B
:100EC000136AE3B9082E39D192F82800010735D505
:100ED00030201725E07531E000280ED592F8280063
:100EE00000F01400102808D1546A11699069641A3E
:100EF000241AE31A012BA8BF9361F0BC7047B0FB22
:100F0000F6F706FB170030306D1EC3B23A2BA4BFB4
:100F1000A1F1510318186055380003D09368671980
:100F2000BB42ECD3082E09D192F82800010705D561
:100F3000605D302802D06D1E30206055C5F1180369
:100F4000106A5361611983429160C5DA118DC31A29
:100F50004FF6EF70014093611185F0BC7047F8B512
:100F600005460E4617461C46002074B117F8011BB3
:100F70007068A847706030B1F069401CF0610020D3
:100F8000641EF3D1F2BD4FF0FF30F2BD686C747A8D
:100F90004C0000007072696E74665F733A20626183
:100FA0006420257320617267756D656E74000000A2
:100FB000C9B202788A421AB11CBF10F8012FF9E7B2
:100FC00018BF00207047000080B500B906A0054991
:100FD0000B681BB122220021984701E000F05CF869
:100FE000222002BD70000020636F6E73747261690D
:100FF0006E742068616E646C65723A206261642070
:101000006D6573736167650000F10103810704D0AA
:1010100010F8011B820781B1FAD10268A2F10131F7
:10102000914311F0803104BF50F8042FF6E709BA5C
:10103000B1FA81F100EBD100401CC01A70470000EA
:10104000C9B2830706D0521E22D310F8013B994241
:10105000F7D11FE0083A13D302F1040241EA01215B
:1010600041EA014150F8043B121F21BF4B40A3F15C
:10107000013C2CEA030C1CF0803FF3D0C9B2001FE6
:10108000083210F8013B521E28BF91EA030FF8D82E
:1010900018BF0120401E7047012000F001B8000079
:1010A00080B5AFF30080024A11001820ABBEFBE709
:1010B00026000200F8B504000F0016001D002000F5
:1010C000C0B2092802DB5FF0FF30B6E03800C0B2E2
:1010D000401E03D0401E02280CD91EE0042269469F
:1010E0004FF47060FFF7EBFB0098002802D17FF00F
:1010F0000200A2E0680713D42800C0B2002822D062
:101100003800C0B2012802D002280DD01BE015F033
:10111000210F08D17FF005008FE07FF004008CE004
:101120007FF0050089E00EE0A80604D5280602D469
:101130007FF0050081E0E80604D5280602D47FF0A0
:1011400005007AE0FFE72000C0B200F077F815F064
:10115000F00007433900C9B22000C0B28000401C33
:10116000C000FFF777FB300080B200280DD1DFF818
:10117000880306880188491C018001884FF6F072B7
:10118000914202D14FF440410180310089B2090AF5
:10119000C9B22000C0B28000C00010F58160FFF726
:1011A00059FB3100C9B22000C0B28000C00010F568
:1011B000A160FFF74FFB01212000C0B28000C000FA
:1011C00010F58470FFF746FB2000C0B28000C0001D
:1011D00010F58470FFF70AFB0028F5D1DFF81C1327
:1011E00001220B8812FA04F083430B800888EDB2C9
:1011F00015F00105A54005430D80DFF804030188C3
:10120000A24031EA020202800020DFF8F812220038
:10121000D2B221F812000020DFF8EC122200D2B284
:1012200088542000C0B28000C00010F54270FFF763
:10123000DDFA0028F5D0200040B2F2BD10B5040060
:101240002000C0B2092802DB5FF0FF3042E010212D
:101250002000C0B28000C00010F58470FFF7FAFAD9
:101260002000C0B28000C00010F58470FFF7BEFA05
:101270000028F5D11F212000C0B28000C00010F569
:101280000270FFF7E7FA0121DFF87022138811FAE4
:1012900004F083431380DFF868020288A14032EA39
:1012A000010101800020DFF85C122200D2B221F897
:1012B00012000020DFF850122200D2B28854200021
:1012C000C0B28000C00010F54270FFF78FFA00280E
:1012D000F5D1012010BD10B504002000C0B20928CE
:1012E00002DB5FF0FF303FE02000C0B28000401C16
:1012F000C000FFF77BFA10F00F00012802D07FF04A
:10130000040031E02000C0B28000C00010F542703F
:10131000FFF76CFA132802D07FF0020024E00221CC
:101320002000C0B28000C00010F58470FFF792FA70
:101330002000C0B28000C00010F58470FFF756FA9C
:101340000028F5D12000C0B28000C00010F5427026
:10135000FFF74CFA142806D02000C0B2FFF76EFF4A
:101360007FF0030000E0012010BD2DE9F8430400E8
:101370000D001600002000202000C0B2092802DB6A
:101380005FF0FF30A2E02000C0B28000401CC0002F
:10139000FFF72CFA10F00F00012802D07FF00400B4
:1013A00094E0300080B2002802D17FF00D008DE083
:1013B0002000C0B28000C00010F54270FFF716FA9E
:1013C0000100C9B2172905D0C0B21C2802D07FF095
:1013D00006007BE0DFF828715FF00108388818FA12
:1013E00004F1084219D02000C0B28000C00010F5FE
:1013F0000270FFF7FBF910F01F00C1066FD5102136
:101400002000C0B28000C00010F50270FFF722FA81
:10141000398818FA04F0814339802000C0B2810075
:1014200041F6087010EBC100FFF7E0F980020100FF
:10143000320089B292B2914200D206002000C0B2BE
:10144000FFF7C4FA81462000C0B28000C00010F54A
:101450004270FFF7CBF90100C9B2172902D0C0B220
:101460001C2835D1DFF89400008818FA04F10842EE
:1014700005D04846310080B289B288423AD3300064
:101480001FFA89F980B28145D8D3320092B229007F
:101490002000C0B2FFF7DAFA20212000C0B280009D
:1014A000C00010F58470FFF7D5F92000C0B28000AD
:1014B000C00010F58470FFF799F90028F5D138883D
:1014C00018FA04F404433C80B6B23000BDE8F2835D
:1014D0002000C0B2FFF7B2FE7FF00600F6E700077B
:1014E00006D52000C0B2FFF7A9FE7FF00C00EDE7A3
:1014F0000020EBE70020E9E77400002076000020E0
:1015000078000020500000206000002070477047E5
:1015100080B56A496A48FEF71EFE6A496A48FEF7C6
:1015200006FE6A496A48FEF72BFE6A496A48FEF7DA
:10153000EAFD01BD18B587B0684C21000020FEF718
:10154000CFFE01A90120FEF7CBFE1722210001A842
:1015500000F0F6F800280CD1614800F025F9614848
:10156000C17800918378427801785F4800F01CF9D7
:1015700002E05E4800F018F908B010BDF8B54FF66B
:10158000FF7068465A49102200F032F9FFF7C0FF99
:10159000FEF7D0FE69460120FEF707FE002802D1C3
:1015A000544800F001F9FFF7C5FF534800E0401E22
:1015B0000628FCD2202341F2883201210020FFF7C7
:1015C00079FD002802D14D4800F0EEF80020FFF729
:1015D00082FE401E06D07FF00401401A0AD0401E51
:1015E00004D00BE0464800F0DFF80AE0454800F080
:1015F000DBF806E0444800F0D7F802E0434800F08A
:10160000D3F84FF44270FFF7F1F800280ED01328FA
:1016100010D0142806D0182810D01A2812D01B2851
:1016200014D017E03A4800F0BFF816E0394800F04F
:10163000BBF812E0384800F0B7F80EE0374800F089
:10164000B3F80AE0364800F0AFF806E0354800F09D
:10165000ABF802E02D4800F0A7F805B000BD80B55A
:101660000A0092B201000020FFF77FFE002820D080
:10167000401E0AD00C380CD07FF01901401A10D04F
:10168000801F0AD0801E10D016E0274800F08CF88A
:1016900012E0264800F088F80EE0254800F084F8B3
:1016A0000AE0244800F080F806E0234800F07CF8C7
:1016B00002E0224800F078F801BD0000D11A0008CD
:1016C000111B0008531B0008471B0008EF1A0008F5
:1016D0002B1B00080F1500080D1500080000002046
:1016E000AC2300081800002020230008DC23000899
:1016F0002824000800220008F0002F00F023000832
:10170000C82400083C2300087C2200083824000874
:101710004824000858240008D4240008682400083D
:10172000782400088824000858230008742300083F
:10173000A821000804240008242200089824000896
:101740000300002013F0030F09D0521E22BF13F82C
:10175000010B11F801CBB0EB0C00F3D0704711F086
:10176000030F14D1121F22BF53F8040B51F804CBFE
:101770006045F7D0121D0AD200BA9CFA8CFCB0EB7F
:101780000C0038BF6FF0000088BF01207047521E68
:1017900022BF13F8010B11F801CBB0EB0C00F6D00F
:1017A000521C08BF104670470EB4C0B5024603A8CD
:1017B00000210190009101AB0121044878440C30D4
:1017C000FFF78EF906BC5DF810FB00BFF90B0000B7
:1017D00062B38B0708D0521E11F8013B00F8013BA1
:1017E00000F024808B07F6D1830740F0208000BFF3
:1017F000103A07D330B4B1E83810103AA0E83810E6
:10180000F9D230BC530724BFB1E80810A0E8081093
:1018100044BF51F8043B40F8043BD20724BF31F8E1
:10182000022B20F8022B44BF0B7803707047121F65
:1018300017D35B0009D151F8043B20F8023B1B0C85
:10184000121F20F8023BF6D20BE051F8043B00F8DF
:10185000013B1B0A20F8023B1B0C121F00F8013B46
:10186000F3D238BF121D521E24BF11F8013B00F8FD
:10187000013BF8D870470000DFF88811086850F085
:1018800001000860DFF880211368DFF88001034061
:1018900013600B68DFF8780103400B60086830F4D0
:1018A00080200860106830F4FE0010605FF41F00B4
:1018B000DFF8601108607047DFF848110A6832F4F9
:1018C00080320A600A6832F480220A60B0F5803FF4
:1018D00003D0B0F5802F05D009E0086850F48030BF
:1018E000086004E0086850F4A0200860FFE7704733
:1018F00080B50020009000200020312000F063F827
:101900000099491C00910099B1F5A06F02D0C0B2B6
:101910000028F2D0312000F056F8002801D0012034
:1019200000E00020C0B202BD0022374B1A6832F43A
:101930007C120843104318607047C0B236490860F3
:1019400070470021304A11688908890008431060F7
:1019500070472D48006810F00C00704700212A4A9B
:10196000116831F0F0010843106070470021264AE9
:10197000116831F4E0610843106070470021224A89
:10198000116831F4605151EAC00111607047C9B269
:10199000002904D022490A681043086004E0204965
:1019A0000A6832EA000008607047C9B2002904D012
:1019B0001C490A681043086004E01A490A6832EAC0
:1019C0000000086070470021002100210100C9B219
:1019D0004909C9B2012902D10A49096806E0022968
:1019E00002D10E49096801E00F490968C0B210F040
:1019F0001F00C140C80701D5012000E00020C0B28F
:101A00007047000000100240041002400000FFF880
:101A1000FFFFF6FE08100240600042422010024024
:101A2000181002401C1002402410024010B586B06D
:101A3000012141F20500FFF7AAFFE020ADF8000008
:101A400003208DF8020018208DF80300444C6946ED
:101A5000200000F089F8E021200000F0E5F81020D7
:101A6000ADF8000003208DF8020010208DF803006F
:101A70006946200000F078F81021200000F0D4F82A
:101A80000020ADF804004FF48270ADF8060000208D
:101A9000ADF808000020ADF80A000020ADF80C00F9
:101AA0004FF40070ADF80E000820ADF810000020D3
:101AB000ADF812000720ADF814002A4C01A920004F
:101AC00000F0B8F80121200000F0D3F806B010BDF6
:101AD00010B50100234CC9B289B2200000F0D7F83C
:101AE0000221200000F0D7F80028F9D010BD70B511
:101AF00004000D00002604E02078FFF7E9FF641CD5
:101B0000761C3000290080B289B28842F4D370BDBF
:101B100010B5144C200000F0BCF80020FFF7D8FFEF
:101B2000200000F0B6F8C0B210BD38B504000D00BA
:101B300004E0FFF7EDFF2070641C6D1E280080B2EA
:101B40000028F6D131BD80B51021054800F06FF8AE
:101B500001BD80B51021024800F066F801BD00000B
:101B60000008014000300140F0B4002200220022B1
:101B7000002200220022CB7813F00F03CA78D2068D
:101B800001D58A7813430A78120620D0066800240B
:101B90001AE0CA78482A16D1A740076113E0012746
:101BA00017FA04F50A882A40AA420CD1A2000F2590
:101BB0009540AE4313FA02F232431600CA78282A3F
:101BC000E7D1A7404761641C082CE8D306600A8867
:101BD000B2F5807F26DB4668002420E0012714F15F
:101BE000080517FA05F50A882A40AA4216D1A2006C
:101BF0000F259540AE4313FA02F232431600CA781D
:101C0000282A04D114F1080217FA02F24261CA78B4
:101C1000482A03D114F1080297400761641C082C7C
:101C2000DCD34660F0BC704789B20161704789B26D
:101C30004161704710B40022038813F441530C88AB
:101C40004A8814438A881443CA8814430A8914436F
:101C50004A8914438A891443CA891443234303805D
:101C6000838B4FF2FF7213408383098A018210BC79
:101C70007047C9B2002904D0018851F040010180A9
:101C800004E002884FF6BF710A40028070478181EC
:101C900070478089704700220089084201D00120E6
:101CA00000E00020C0B2704710B400220488DFF8C2
:101CB000EC30984212D0DFF8FC2090420ED0B0F108
:101CC000804F0BD0DFF8D820904207D0DFF8D42027
:101CD000904203D0DFF8D020904204D14FF68F72AB
:101CE00014404A881443DFF8C420904208D0DFF83B
:101CF000C020904204D04FF6FF421440CA881443DB
:101D000004808A8882850A88028598420FD0DFF88D
:101D1000A42090420BD0DFF8A020904207D0DFF83B
:101D20009C20904203D0DFF89820904201D1097A9C
:101D300001860121818210BC7047C9B2002904D0FC
:101D4000018851F00101018004E002884FF6FE7124
:101D50000A4002807047D2B2002A03D08289114320
:101D6000818103E0828932EA01018181704700228A
:101D700000220022028A0A408089014092B2002A91
:101D800004D089B2002901D0012000E00020C0B2B7
:101D9000704789B2C943018270470000002C01409E
:101DA0000004004000080040000C0040001000400B
:101DB0000014004000340140004001400044014054
:101DC0000048014080B53E49086850F001000860B5
:101DD0003C4A13683C48034013600B683B4803408F
:101DE0000B60086830F480200860106830F4FE0052
:101DF00010605FF41F003649086000F005F85FF0DE
:101E000000603449086001BD80B500F001F801BDF3
:101E100082B000200190002000902949086850F409
:101E200080300860086810F4003000900198401C71
:101E300001900098002803D10198B0F5A06FF1D16E
:101E40000868800302D50120009001E00020009086
:101E50000098012831D12048026852F01002026037
:101E60000268920892000260026852F00202026068
:101E700014480268026002680260026852F48062DC
:101E80000260026832F47C120260026852F4E812C6
:101E900002600A6852F080720A600A689201FCD5FA
:101EA0000168890889000160016851F00201016040
:101EB000016811F00C010829FAD102B07047000046
:101EC00000100240041002400000FFF8FFFFF6FE81
:101ED0000810024008ED00E00020024080B5FFF746
:101EE000CBFC5FF48030FFF7E7FCFFF701FDC0B2E9
:101EF000012828D1102000F07AF8022000F06EF8B6
:101F00000020FFF72BFD0020FFF738FD4FF4806025
:101F1000FFF72CFD5FF4E0115FF48030FFF704FD64
:101F20000120FFF70AFD3920FFF74DFD0028FAD008
:101F30000220FFF706FDFFF70CFD0828FBD1012169
:101F40003D20FFF724FD01BD80B500215FF000605A
:101F500000F08FF84FF4C06000F056F800208DF8C4
:101F600001001C208DF8000000208DF801000020E9
:101F70008DF8020001208DF80300684600F049F852
:101F800001BDE0B501210120FFF70FFD0920ADF8EB
:101F9000040041F61F40ADF800000020ADF8060037
:101FA0000020ADF8020069465FF08040FFF77CFE3C
:101FB000012201215FF08040FFF7CDFE01215FF09B
:101FC0008040FFF7BAFE07BD80B5FFF787FFFFF738
:101FD000BBFFFFF72BFDFFF7D4FF01BD0021DFF8AA
:101FE0002420116811F03801084310607047DFF8B1
:101FF00014100A6832F010020A600A681043086080
:1020000070470000002002401D4908431D49086038
:102010007047002100210F23C17800291ED01949E3
:10202000096811F4E061D1F5E061090AD1F1040217
:10203000CB40417811FA02F281780B401A43120129
:1020400011490378CA540121027812F01F0291400D
:102050000E4A0078401142F8201009E00121027870
:1020600012F01F0291400A4A0078401142F82010F5
:102070007047084A1140084307490860704700004C
:102080000000FA050CED00E000E400E000E100E0F3
:1020900080E100E080FFFF1F08ED00E0F8B5684632
:1020A0001B490E22FFF794FB6846FEF7ADFF0100C7
:1020B0001848FFF779FBFFF72BFAFFF785FFFFF7CB
:1020C0005DFA1548016840F2E9329142F9D30021E6
:1020D00001606846FEF798FF010089B26846FFF785
:1020E000BEFAEEE780B501215FF08040FFF73FFECA
:1020F00001280CD101215FF08040FFF74AFE07481C
:102100000168491C016004480168491C016001BD67
:1021100018240008EC2400084C000020480000208F
:1021200070B40B00002111480068C0010FD40800F2
:1021300070BC70475D782D0225439C7826042E43A1
:10214000DC78240634431B1D0460121F091D002A7D
:10215000EDD0E02000060468002CFAD01C78042A98
:10216000E8D204705B1C491C521EF0E7FCED00E055
:1021700030B5016884684218416802EB5103C90711
:102180000BD54C4409E012F9011B12F8015B002940
:1021900004F8015B05D5491CF9D19A42F3D10C3002
:1021A00030BD491EF1D5F8E720496E76616C69644F
:1021B00020736F636B65742073746174757320662C
:1021C0006F7220736F636B6574206F7065726174DA
:1021D000696F6E200A00000010B507497944183174
:1021E000064C7C44163404E00A68081D11448847F4
:1021F0000146A142F8D110BD74000000800000002B
:102200005735353030206368697020696E697469AC
:10221000616C697A65207375636365737366756C49
:102220000A000000496E76616C6964206F70657207
:102230006174696F6E20696E2074686520736F63C6
:102240006B6574200A00000018B583B00300140009
:1022500000930191029469460520ABBE012219004A
:10226000201AAFF3008004B010BD000005FFFFFF8F
:10227000540300008A00000000000020536F636BCD
:10228000657420636C6F73656420756E6578706526
:10229000637465646C792E0A0000000080B58DF8C7
:1022A000000001226946012000F008F8012802D14F
:1022B0009DF8000002BD4FF0FF3002BD80B5002840
:1022C00002D400F003F802BD002002BD80B5002951
:1022D00001D1002002BD012801D0022802D1FFF760
:1022E0001FFF02BDFFF7B0FF02BD000000F00DF8B8
:1022F000002801D0FFF770FFAFF300800020AFF39C
:102300000080FFF7CBFE00F002F80120704700F0DC
:1023100001B8000007463846FEF7C2FEFBE70000A2
:102320006C6F63616C6C5F4970203D2025642C25C7
:10233000642C25642C25640A00000000536F636B35
:102340006574206973206E6F7420696E69746961A9
:102350006C697A6564200A003120627974652064B2
:102360006174612073656E74205375636365737364
:102370000A00000031332062797465206461746161
:102380002073656E7420537563636573730A000070
:1023900003490868002802D00868401E086070479A
:1023A0006800002080B5FFF7F3FF01BD49502043CE
:1023B0006F6E666967207375636365737366756CAA
:1023C0000A00000038B504460D462846FFF766FFB0
:1023D000A84218BF0024204632BD000049502043C7
:1023E0006F6E666967206661696C65640A0000004B
:1023F000736F636B65742030206F70656E65640A5F
:102400000000000054696D656F7574206F6363751B
:1024100072726564200A000048656C6C6F2C776FDF
:10242000726C64210A00000002020202020202022F
:102430000202020202020202776861742074686577
:10244000206675636B3F0A00534F434B5F4C495303
:1024500054454E0A00000000534F434B5F434C4F1E
:102460005345440A00000000534F434B5F46494E1A
:102470005F574149540A0000534F434B5F434C4F51
:1024800053494E470A000000534F434B5F54494D98
:10249000455F574149540A00536F636B6574206967
:1024A0007320627573790A0001488047014800472C
:1024B000C51D0008E12400087047FEE7FEE7FEE7BF
:1024C000FEE7704770477047534F434B5F4F4B0ACF
:1024D00000000000534F434B5F494E49540A00002F
:1024E000AFF30080AFF30080FFF700FF2532640AEE
:1024F00000000000FFF7E0BFFFF7DFBFFFF7DEBF20
:10250000FFF7DDBFFFF7DCBFFFF7DBBFFFF7DABF89
:10251000FFF7D9BFFFF746BFFFF7FEBFFFF7FEBFCC
:10252000FFF7FEBFFFF7FEBFFFF7FEBFFFF7FEBFDF
:10253000FFF7FEBFFFF7FEBFFFF7FEBFFFF7FEBFCF
:10254000FFF7FEBFFFF7FEBFFFF7FEBFFFF7FEBFBF
:10255000FFF7FEBFFFF7FEBFFFF7FEBFFFF7FEBFAF
:10256000FFF7FEBFFFF7FEBFFFF7FEBFFFF7FEBF9F
:10257000FFF7FEBFFFF7FEBFFFF7FEBFFFF7FEBF8F
:10258000FFF7FEBFFFF7FEBFFFF7ACBDFFF7FEBFD3
:10259000FFF7FEBFFFF7FEBFFFF7FEBFFFF7FEBF6F
:1025A000FFF7FEBFFFF7FEBFFFF7FEBFFFF7FEBF5F
:1025B000FFF7FEBFFFF7FEBFFFF7FEBFFFF7FEBF4F
:1025C000FFF7FEBF09788368885638C0A81F02FD50
:1025D000FF1500C0A81F01C0A81F010200C0A81F4E
:1025E0000201025735353030FB0017ED000008EFCF
:1025F000000008F1000008F3000008F5000008F9E9
:09260000000008CB0000C0FB0043
:04000005080024E1EA
:00000001FF
