:020000040800F2
:10000000D80600201D3800082D3800082F380008B9
:100010003138000833380008353800080000000087
:100020000000000000000000000000003738000859
:1000300039380008000000003B380008B9360008D5
:1000400085380008893800088D3800089138000884
:1000500095380008993800089D380008A138000834
:10006000A5380008A9380008AD380008B1380008E4
:10007000B5380008B9380008BD380008C138000894
:10008000C5380008C9380008CD380008D138000844
:10009000D5380008D9380008DD380008E1380008F4
:1000A000E5380008E9380008ED380008F1380008A4
:1000B000B3330008F9380008FD380008013900089A
:1000C00005390008093900080D3900081139000800
:1000D00015390008193900081D39000821390008B0
:1000E00025390008293900082D39000880B5042277
:1000F000DFF8D41B4FF4706001F092F80422DFF8AF
:10010000CC1B4FF4A06001F08BF80422DFF86C1DCB
:100110004FF4807001F084F801BD80B5802100208B
:1001200001F006F8002000F0CFFFFFF7DFFF062206
:10013000DFF84C1D4FF4106001F072F801BD80B57E
:100140008021002000F0F4FF002000F0BDFF062217
:10015000DFF82C1D4FF4106001F062F801BD70B49F
:10016000DFF8003DDFF81C4D1C60DFF81C4DDFF8A8
:100170001C5D2560DFF8185DDFF8A46D2E600600B9
:10018000002E00D018600800002800D02160100068
:10019000002800D02A6070BC70471CB50622694652
:1001A0004FF4106000F0F9FFDFF8E80C012102685D
:1001B00011700121026851700621026891700021BE
:1001C0000268D1700168091DDFF8CC2C13681B0E82
:1001D0000B7013681B0C4B7013681B0A8B70126832
:1001E000CA7000210268118101680A3180220A70F8
:1001F00000224A70002102681173002102685173C5
:1002000000210268917300210268D1730021026805
:100210001174002102685174002102689174002158
:100220000268D174002102681175002102685175BD
:1002300000210268917500210268D17500210268D1
:100240001176002102685176002102689176002122
:100250000268D176DFF8281C0A7803681A774A7892
:1002600003685A778A7803689A77CA780368DA77D6
:100270000A79036883F820204979026882F82110FE
:10028000062106E0002203680C00E4B223441A773A
:10029000491C0A00D2B2102AF4DB002107E0002238
:1002A00003680C00E4B2234483F82C20491C0A00A4
:1002B000D2B2402AF3DB002107E0002203680C00E1
:1002C000E4B2234483F86C20491C0A00D2B2802A8D
:1002D000F3DB6321026882F8EC108221026882F865
:1002E000ED105321026882F8EE106321006880F857
:1002F000EF1013BDFEB50020FFF74FFF0425DFF818
:10030000944B352021682A0092B2114481F8EC0008
:100310006D1C012021682A0092B2114481F8EC0082
:100320006D1C012021682A0092B2114481F8EC0072
:100330006D1C3D2021682A0092B2114481F8EC0026
:100340006D1C072021682A0092B2114481F8EC004C
:100350006D1C012021682A0092B2114481F8EC0042
:100360006D1CDFF81C6B307821682A0092B21144B2
:1003700081F8EC006D1C707821682A0092B211445B
:1003800081F8EC006D1CB07821682A0092B211440B
:1003900081F8EC006D1CF07821682A0092B21144BB
:1003A00081F8EC006D1C307921682A0092B211446A
:1003B00081F8EC006D1C707921682A0092B211441A
:1003C00081F8EC006D1C0C2021682A0092B21144C7
:1003D00081F8EC006D1C002021682A0092B21144C3
:1003E00081F8EC006D1C00270AE0380080B2085C40
:1003F00021682A0092B2114481F8EC006D1C7F1C28
:10040000DFF8681C380080B2085C0028EDD1F07875
:10041000C0B2000900F04CFE21682A0092B21144DB
:1004200081F8EC006D1CF07800F042FE21682A0093
:1004300092B2114481F8EC006D1C3079C0B2000911
:1004400000F036FE21682A0092B2114481F8EC00D7
:100450006D1C307900F02CFE21682A0092B2114404
:1004600081F8EC006D1C7079C0B2000900F020FE2C
:1004700021682A0092B2114481F8EC006D1C707959
:1004800000F016FE21682A0092B2114481F8EC00B7
:100490006D1C21682A0092B2380080B2121A01EB5A
:1004A0000200BF1D80F8E570372021682A0092B253
:1004B000114481F8EC006D1C062021682A0092B2DC
:1004C000114481F8EC006D1C012021682A0092B2D1
:1004D000114481F8EC006D1C032021682A0092B2BF
:1004E000114481F8EC006D1C062021682A0092B2AC
:1004F000114481F8EC006D1C0F2021682A0092B293
:10050000114481F8EC006D1C3A2021682A0092B257
:10051000114481F8EC006D1C3B2021682A0092B246
:10052000114481F8EC006D1CFF2021682A0092B272
:10053000114481F8EC006D1C07E0002122682B00BB
:100540009BB21A4482F8EC106D1C290089B2B1F5F7
:100550009C7FF2DB8DF8040001A948708870C87098
:100560004320009001AB4FF409722168DFF8000BC3
:10057000007801F003FAF7BDFEB50020FFF70DFE8D
:10058000DFF8F00A90F90010032903D090F9000079
:10059000042822D1DFF8FC080021026891720021B2
:1005A0000268D172DFF820170A7803681A734A7854
:1005B00003685A738A7803689A73C9780068C173AC
:1005C000DFF8B40A01788DF8041001A942784A7066
:1005D00082788A70C078C87006E0FF218DF8041018
:1005E00001A841708170C1700425DFF8A84835204A
:1005F00021682A0092B2114481F8EC006D1C0120A0
:1006000021682A0092B2114481F8EC006D1C03208D
:1006100021682A0092B2114481F8EC006D1C3D2043
:1006200021682A0092B2114481F8EC006D1C072069
:1006300021682A0092B2114481F8EC006D1C01205F
:1006400021682A0092B2114481F8EC006D1CDFF899
:100650003068307821682A0092B2114481F8EC00A9
:100660006D1C707821682A0092B2114481F8EC0068
:100670006D1CB07821682A0092B2114481F8EC0018
:100680006D1CF07821682A0092B2114481F8EC00C8
:100690006D1C307921682A0092B2114481F8EC0077
:1006A0006D1C707921682A0092B2114481F8EC0027
:1006B0006D1C9DF80700FF2863D1322021682A00B5
:1006C00092B2114481F8EC006D1C042021682A00CC
:1006D00092B2114481F8EC006D1CDFF8EC05017852
:1006E00022682B009BB21A4482F8EC106D1C4178F2
:1006F00022682B009BB21A4482F8EC106D1C8178A2
:1007000022682B009BB21A4482F8EC106D1CC07852
:1007100021682A0092B2114481F8EC006D1C362049
:1007200021682A0092B2114481F8EC006D1C04206B
:1007300021682A0092B2114481F8EC006D1CDFF8A8
:100740003809017822682B009BB21A4482F8EC1019
:100750006D1C417822682B009BB21A4482F8EC1081
:100760006D1C817822682B009BB21A4482F8EC1031
:100770006D1CC07821682A0092B2114481F8EC0007
:100780006D1C0C2021682A0092B2114481F8EC0003
:100790006D1C002021682A0092B2114481F8EC00FF
:1007A0006D1C002708E0C85D21682A0092B2114440
:1007B00081F8EC006D1C7F1CDFF8B018C85D0028C4
:1007C000F1D1F078C0B2000900F072FC21682A0073
:1007D00092B2114481F8EC006D1CF07800F068FCD6
:1007E00021682A0092B2114481F8EC006D1C307926
:1007F000C0B2000900F05CFC21682A0092B21144EA
:1008000081F8EC006D1C307900F052FC21682A0060
:1008100092B2114481F8EC006D1C7079C0B20009ED
:1008200000F046FC21682A0092B2114481F8EC00E5
:100830006D1C707900F03CFC21682A0092B21144D2
:1008400081F8EC006D1C2068290089B2C91B08449E
:10085000BF1D80F8E570372021682A0092B211444C
:1008600081F8EC006D1C082021682A0092B2114426
:1008700081F8EC006D1C012021682A0092B211441D
:1008800081F8EC006D1C032021682A0092B211440B
:1008900081F8EC006D1C062021682A0092B21144F8
:1008A00081F8EC006D1C0F2021682A0092B21144DF
:1008B00081F8EC006D1C3A2021682A0092B21144A4
:1008C00081F8EC006D1C3B2021682A0092B2114493
:1008D00081F8EC006D1C1F2021682A0092B211449F
:1008E00081F8EC006D1C212021682A0092B211448D
:1008F00081F8EC006D1CFF2021682A0092B211449F
:1009000081F8EC006D1CADB205E00020216829449F
:1009100081F8EC006D1CB5F59C7FF6DB4320009060
:1009200001AB4FF409722168DFF84407007801F049
:1009300025F8F7BD3EB50020FFF72FFC0421DFF8B6
:100940005405002203689A7200220368DA72352285
:1009500003680C00A4B2234483F8EC20491C012254
:1009600003680C00A4B2234483F8EC20491C042241
:1009700003680C00A4B2234483F8EC20491C3D22F8
:1009800003680C00A4B2234483F8EC20491C07221E
:1009900003680C00A4B2234483F8EC20491C012214
:1009A00003680C00A4B2234483F8EC20491CDFF850
:1009B000D024137804680D00ADB22C4484F8EC30D8
:1009C000491C537804680D00ADB22C4484F8EC3017
:1009D000491C937804680D00ADB22C4484F8EC30C7
:1009E000491CD37804680D00ADB22C4484F8EC3077
:1009F000491C137904680D00ADB22C4484F8EC3026
:100A0000491C527903680C00A4B2234483F8EC20FB
:100A1000491C322203680C00A4B2234483F8EC2062
:100A2000491C042203680C00A4B2234483F8EC2080
:100A3000491CA54A137804680D00ADB22C4484F813
:100A4000EC30491C537804680D00ADB22C4484F896
:100A5000EC30491C937804680D00ADB22C4484F846
:100A6000EC30491CD27803680C00A4B2234483F80C
:100A7000EC20491C362203680C00A4B2234483F8FE
:100A8000EC20491C042203680C00A4B2234483F820
:100A9000EC20491CDFF8E025137804680D00ADB2A6
:100AA0002C4484F8EC30491C537804680D00ADB236
:100AB0002C4484F8EC30491C937804680D00ADB2E6
:100AC0002C4484F8EC30491CD27803680C00A4B2A2
:100AD000234483F8EC20491CFF2203680C00A4B2D5
:100AE000234483F8EC20491C89B205E00023046804
:100AF0000C4484F8EC30491CB1F59C7FF6DB8DF892
:100B0000042001A94A708A70CA704321009101AB88
:100B10004FF409720168DFF85805007800F02EFFE5
:100B200037BD7FB50024DFF84865307800F0FCFB66
:100B3000020080B2002832D0DFF8585301A800909C
:100B400002AB92B22968307801F019F8BDF80410B0
:100B5000432940F0B580DFF828132A68127F0B780C
:100B60009A421AD12A68527F4B789A4215D12A6844
:100B7000927F8B789A4210D12A68D27FCB789A42A2
:100B80000BD12A6892F820200B799A4205D12A6865
:100B900092F8212049798A4203D0002092E0002077
:100BA00090E02968F03180B20844F03800E001009C
:100BB000814280F085800A78002A0ED0012A13D065
:100BC000032A21D0062A33D0332A46D0352A06D02C
:100BD000362A5DD0FF2AEAD06CE0491CE8E7491CC0
:100BE000491C0C78491CE3E7491C491C374A0B781F
:100BF0001370491C0B785370491C0B789370491C77
:100C00000B78D370491CD3E7491C0A78491C9B4BCD
:100C10000D781D70491C0D785D70491C0D789D7014
:100C2000491C0D78DD70491CD2B21144091FBFE781
:100C3000491C0A78491CDFF844340D781D70491CA2
:100C40000D785D70491C0D789D70491C0D78DD7024
:100C5000491CD2B21144091FAAE7491C0A78491C51
:100C6000DFF81C240B781360491C13680D7815EB12
:100C700003251560491C13680D7815EB03251560D5
:100C8000491C13680D7815EB03251560491C8FE787
:100C9000491C0A78491CDFF8E0230B781370491CC3
:100CA0000B785370491C0B789370491C0B78D370E8
:100CB000491C7DE7491C0A78491CD2B2114477E7E8
:100CC000200040B204B070BDA4000020AC000020A1
:100CD00038B5DFF8A04394F90000062801D10520BB
:100CE000BFE0DFF88C5328788000C00010F5427018
:100CF00000F0EAF9222805D00023442202212878B6
:100D000000F01AFC0125FFF70CFF94F900100029F0
:100D100006D002292ED012D3042971D04ED39EE0E2
:100D2000DFF8600300210170002141700021817013
:100D30000021C170FFF7DEFA012020708FE0C0B201
:100D4000022813D15349DFF83C030A68127C027071
:100D50000A68527C42700A68927C82700968C97C79
:100D6000C170FFF709FC0220207002E000F096F845
:100D7000050074E00100C9B2052913D100F0D2F8D2
:100D8000002807D037480068804700F03BF903206F
:100D9000207012E000F036F93D48006880470020DE
:100DA00020700AE0C0B2062804D100F02BF901201F
:100DB000207002E000F072F8050050E00425B04811
:100DC000016811F1010F1AD000684008AE490968A6
:100DD000884214D20020AB48AC4902780A704278AD
:100DE0004A7082788A70C078C8702B480168491CA4
:100DF0000160FFF7C1FB00F005F9042020702EE030
:100E000004250100C9B205291DD10020A0490870A0
:100E10009C489E490A7803789A420BD14A784378D5
:100E20009A4207D18A7883789A4203D1C978C078E8
:100E3000814203D0032514480068804700F0E2F89F
:100E4000032020700AE0C0B2062804D100F0DAF8CE
:100E50000120207002E000F021F80500FFE72800E3
:100E6000C0B232BD1000002080B58148007800F08B
:100E700027FC06207F49087001BD0000A800002063
:100E80008C000020ED000008140000201B01000869
:100E900018000020BC000020B8000020F8B5012494
:100EA0007B4D95F90000022821DA7A4E764F3068A2
:100EB0003968884230D26F4890F90000012804D088
:100EC000022805D0042806D008E0FFF713FA05E051
:100ED000FFF752FB02E0FFF74FFBFFE7002038600F
:100EE00038680A3030602878401C287014E0614D62
:100EF00095F90000012804D0022806D0042804D067
:100F000008E000202870002404E0FFF7F3F9012036
:100F10002870FFE700F076F82000C0B2F2BD0000B4
:100F20003F01000838B54FF4D85000F0CDF8050067
:100F300003214FF4D85000F0FBF841F288300090C4
:100F4000504B112254494A48007800F017FD040024
:100F50002900C9B24FF4D85000F0EAF814F10D0F8F
:100F600001D1012008E0FFF7E5FC474908680A685D
:100F7000121A022AFBD3002032BD7CB504000D00FA
:100F8000684600210160244E062231004FF41060B3
:100F900000F003F9317870780143B0780143F078BC
:100FA00001433079014370790143002911D10020B8
:100FB000307008207070DC20B0700020F0700020CD
:100FC000307100207071062231004FF4106000F083
:100FD00027F92748047031480560314831490860D5
:100FE000042269464FF4706000F01AF90422694641
:100FF0004FF4807000F014F900F004F800201D494F
:10100000087073BD0020204908600A20214908604B
:1010100000201F49087070478C00002019490A7889
:1010200002704A7842708A788270C978C1707047BD
:101030001D490A7802704A7842708A788270C978AD
:10104000C170704719490A7802704A7842708A78EC
:101050008270C978C170704708490A7802704A786E
:1010600042708A788270C978C17070470800002089
:10107000D4000020D50000209C000020B0000020FB
:1010800000000020A4000020B4000020A0000020E8
:10109000D60000200400002008370008BC00002013
:1010A00078563412B8000020A8000020AC000020C0
:1010B00010F00F000100C9B20A2902DA3030C0B2C4
:1010C00001E03730C0B2704738B50500754CE068B4
:1010D000804760698047606A002802D0A06A0028C3
:1010E0000ED12800000CC0B2216A88472800000AEF
:1010F000C0B2216A88472800C0B2216A88470DE043
:101100002800000C8DF800002800000A8DF801006E
:101110008DF8025003216846A26A9047E069804733
:101120000500A0698047206980472800C0B232BD11
:101130007CB506000C005B4DE86880476869804715
:1011400056F00406A86A002812D13000000CC0B284
:10115000296A88473000000AC0B2296A88473000EF
:10116000C0B2296A88472000C0B2296A88470FE0C8
:101170003000000C8DF800003000000A8DF80100EE
:101180008DF802608DF8034004216846AA6A9047F2
:10119000A86980472869804773BDF8B507000C002F
:1011A0001500404EF068804770698047706A0028DB
:1011B00002D0B06A00281BD13800000CC0B2316ADE
:1011C00088473800000AC0B2316A88473800C0B288
:1011D000316A884700273800290080B289B28842E6
:1011E00019D2F0698047390089B260547F1CF2E758
:1011F0003800000C8DF800003800000A8DF801005E
:101200008DF8027003216846B26A9047290089B2BE
:101210002000726A9047B069804730698047F1BD0D
:10122000F8B507000C0015001E4EF0688047706985
:10123000804757F00407B06A00281BD13800000C23
:10124000C0B2316A88473800000AC0B2316A8847A4
:101250003800C0B2316A884700273800290080B2C0
:1012600089B2884219D2380080B2205C316A88473E
:101270007F1CF2E73800000C8DF800003800000AEF
:101280008DF801008DF8027003216846B26A90471C
:10129000290089B22000B26A9047B069804730695E
:1012A0008047F1BD4C0000202DE9F84304000025E3
:1012B000002042F208062000C0B2800016EBC000F9
:1012C000FFF702FF814642F208171FFA89F9200052
:1012D000C0B2800017EBC000FFF7F6FE804618EBA7
:1012E0000928404680B2002814D02000C0B28000F7
:1012F00016EBC0063000FFF7E7FE0600B6B220008E
:10130000C0B2800017EBC0073800FFF7DDFE050014
:1013100015EB0625280080B21FFA88F84045C8D191
:10132000280080B2BDE8F2832DE9F84304000025CF
:10133000002042F208662000C0B2800016EBC00018
:10134000FFF7C2FE814642F208771FFA89F92000B2
:10135000C0B2800017EBC000FFF7B6FE804618EB66
:101360000928404680B2002814D02000C0B2800076
:1013700016EBC0063000FFF7A7FE0600B6B220004D
:10138000C0B2800017EBC0073800FFF79DFE0500D4
:1013900015EB0625280080B21FFA88F84045C8D111
:1013A000280080B2BDE8F2832DE9F04704000D006B
:1013B000160000200020300080B200283CD042F20D
:1013C00008472000C0B2800017EBC000FFF77CFE8A
:1013D000814642F208585FFA89F92000C0B28000C5
:1013E00018EBC000FFF770FE82461AEB092A51463F
:1013F00089B22000C0B28000801CC00010EB012028
:10140000320092B22900FFF70BFF16EB0A063100FB
:1014100089B2090AC9B22000C0B2800017EBC00728
:101420003800FFF785FE3100C9B2E4B2A00018EB26
:10143000C0084046FFF77CFEBDE8F0872DE9F04785
:1014400004000D00160000200020300080B20028AB
:101450003CD042F608072000C0B2800017EBC00065
:10146000FFF732FE814642F608185FFA89F920003C
:10147000C0B2800018EBC000FFF726FE82461AEBD0
:10148000092A514689B22000C0B28000C01CC000A9
:1014900010EB0120320092B22900FFF77EFE16EB1E
:1014A0000A06310089B2090AC9B22000C0B2800020
:1014B00017EBC0073800FFF73BFE3100C9B2E4B2BA
:1014C000A00018EBC0084046FFF732FEBDE8F087E9
:1014D0002DE9F04104000D00002042F6080620002E
:1014E000C0B2800016EBC000FFF7EEFD804642F66A
:1014F00008175FFA88F82000C0B2800017EBC00020
:10150000FFF7E2FD10EB08202D18290089B2090A27
:10151000C9B22000C0B2800016EBC0063000FFF751
:1015200007FE2900C9B2E4B2A00017EBC0073800DB
:10153000FFF7FEFDBDE8F081F8B504000F001600CE
:101540001D002000C0B2092802DB5FF0FF30B6E0CA
:101550003800C0B2401E03D0401E02280CD91EE045
:10156000042269464FF47060FFF717FE00980028C8
:1015700002D17FF00200A2E0680713D42800C0B2B5
:10158000002822D03800C0B2012802D002280DD095
:101590001BE015F0210F08D17FF005008FE07FF0F0
:1015A00004008CE07FF0050089E00EE0A80604D579
:1015B000280602D47FF0050081E0E80604D528065D
:1015C00002D47FF005007AE0FFE72000C0B200F00F
:1015D00077F815F0F00007433900C9B22000C0B217
:1015E0008000401CC000FFF7A3FD300080B200283F
:1015F0000DD1DFF8EC0806880188491C01800188BC
:101600004FF6F072914202D14FF440410180310017
:1016100089B2090AC9B22000C0B28000C00010F52A
:101620008160FFF785FD3100C9B22000C0B28000A3
:10163000C00010F5A160FFF77BFD01212000C0B2C2
:101640008000C00010F58470FFF772FD2000C0B26A
:101650008000C00010F58470FFF736FD0028F5D13A
:10166000DFF8801801220B8812FA04F083430B8004
:101670000888EDB215F00105A54005430D80DFF89F
:1016800068080188A24031EA020202800020DFF8E7
:101690005C182200D2B221F812000020DFF85018A6
:1016A0002200D2B288542000C0B28000C00010F5E1
:1016B0004270FFF709FD0028F5D0200040B2F2BDCE
:1016C00010B504002000C0B2092802DB5FF0FF3033
:1016D00042E010212000C0B28000C00010F58470EC
:1016E000FFF726FD2000C0B28000C00010F5847016
:1016F000FFF7EAFC0028F5D11F212000C0B28000CE
:10170000C00010F50270FFF713FD0121DFF8D427A8
:10171000138811FA04F083431380DFF8CC070288A2
:10172000A14032EA010101800020DFF8C017220049
:10173000D2B221F812000020DFF8B4172200D2B292
:1017400088542000C0B28000C00010F54270FFF73E
:10175000BBFC0028F5D1012010BD10B5040020000D
:10176000C0B2092802DB5FF0FF303FE02000C0B2CA
:101770008000401CC000FFF7A7FC10F00F000128FC
:1017800002D07FF0040031E02000C0B28000C00031
:1017900010F54270FFF798FC132802D07FF002008A
:1017A00024E002212000C0B28000C00010F5847047
:1017B000FFF7BEFC2000C0B28000C00010F58470AE
:1017C000FFF782FC0028F5D12000C0B28000C000E5
:1017D00010F54270FFF778FC142806D02000C0B244
:1017E000FFF76EFF7FF0030000E0012010BD2DE940
:1017F000F84304000D001600002000202000C0B2B5
:10180000092802DB5FF0FF30A2E02000C0B28000B8
:10181000401CC000FFF758FC10F00F00012802D058
:101820007FF0040094E0300080B2002802D17FF005
:101830000D008DE02000C0B28000C00010F54270A5
:10184000FFF742FC0100C9B2172905D0C0B21C281D
:1018500002D07FF006007BE0DFF88C765FF00108B5
:10186000388818FA04F1084219D02000C0B280006C
:10187000C00010F50270FFF727FC10F01F00C10632
:101880006FD510212000C0B28000C00010F502709A
:10189000FFF74EFC398818FA04F0814339802000A4
:1018A000C0B2810041F6087010EBC100FFF70CFCDC
:1018B00080020100320089B292B2914200D2060049
:1018C0002000C0B2FFF7F0FC81462000C0B28000CB
:1018D000C00010F54270FFF7F7FB0100C9B21729ED
:1018E00002D0C0B21C2835D1DFF8F805008818FAFC
:1018F00004F1084205D04846310080B289B28842DE
:101900003AD330001FFA89F980B28145D8D332002A
:1019100092B229002000C0B2FFF746FD202120002E
:10192000C0B28000C00010F58470FFF701FC2000F9
:10193000C0B28000C00010F58470FFF7C5FB00281E
:10194000F5D1388818FA04F404433C80B6B230006C
:10195000BDE8F2832000C0B2FFF7B2FE7FF00600C0
:10196000F6E7000706D52000C0B2FFF7A9FE7FF01A
:101970000C00EDE70020EBE70020E9E72DE9F0415E
:1019800005000F0016009846002000202800C0B275
:10199000092802DB5FF0FF30DFE02800C0B28000E2
:1019A000401CC000FFF790FB10F00F00C0B2801E7B
:1019B000022806D8300080B2002805D17FF00D0043
:1019C000CBE07FF00400C8E098F8000098F8011020
:1019D00011EB002198F8022012EB012298F8030085
:1019E00010EB022000280BD12800C0B28000401C60
:1019F000C000FFF769FB400702D47FF00B00ACE0AA
:101A0000069C200080B200280BD12800C0B28000C4
:101A1000401CC000FFF758FB400702D47FF00A00CB
:101A20009BE02800C0B28000C00010F54270FFF7B4
:101A30004BFB0100C9B2422909D00100C9B22229D9
:101A400005D0C0B2322802D07FF0060085E0042223
:101A500041462800C0B28000C00000F60840FFF7F1
:101A6000DFFB210089B2090AC9B22800C0B2820096
:101A700041F2080010EBC200FFF75AFB2100C9B287
:101A80002800C0B2820041F2081010EBC200FFF73C
:101A90004FFB2800C0B2810041F6087010EBC10076
:101AA000FFF712FB80020100320089B292B291422C
:101AB00000D206002800C0B2FFF7F6FB04002800A1
:101AC000C0B28000C00010F54270FFF7FDFA002898
:101AD00045D0DFF8100400880121A940084205D054
:101AE0002000310080B289B288423BD33000A4B2DA
:101AF00080B28442DED3320092B239002800C0B2F4
:101B0000FFF752FC20212800C0B28000C00010F571
:101B10008470FFF70DFB2800C0B28000C00010F5F4
:101B20008470FFF7D1FA0028F5D12800C0B28000F8
:101B3000C00010F50270FFF7C7FA10F01F00C106D1
:101B400012D40007F1D50821EDB2A800C00010F5AD
:101B50000270FFF7EDFA7FF00C00BDE8F0817FF036
:101B60000300FAE70020F8E71021EDB2A800C0005A
:101B700010F50270FFF7DCFAB6B23000EDE72DE9A0
:101B8000FC4704000D0016001F005FF00009200054
:101B9000C0B2092802DB5FF0FF309EE12000C0B236
:101BA0008000401CC000FFF78FFA8046C0B210F0E2
:101BB0000F00C0B2801E022806D8300080B2002874
:101BC00005D17FF00D0088E17FF0040085E1DFF8AA
:101BD0001CA32000C0B23AF8100000281CD120003D
:101BE000C0B2FFF7A1FB81462000C0B28000C00058
:101BF00010F54270FFF768FA00286FD0B9480088E6
:101C00000121A140084203D0484680B2002868D094
:101C1000484680B20028E2D05FFA88F818F007083A
:101C20005FFA88F8B8F1020F07D0C0F01981B8F157
:101C3000040F65D0C0F0C08012E12000C0B23AF8B5
:101C40001000002840D1082269462000C0B2FFF7EA
:101C5000F5FB40212000C0B28000C00010F5847068
:101C6000FFF766FA2000C0B28000C00010F5847053
:101C7000FFF72AFA0028F5D10A999DF8000038707C
:101C8000684642787A708278BA70C278FA700279BF
:101C90000A800A88437913EB02230B8081792200A2
:101CA000D2B22AF812102100C9B23AF81110C07944
:101CB00010EB01202100C9B22AF811008020DFF8C2
:101CC00030122200D2B2885430002100C9B23AF852
:101CD000111080B2884206D2B14608E07FF00300BE
:101CE000FBE00020F9E02000C0B23AF8109048462E
:101CF0004A4692B229002000C0B2FFF79FFBB9E02C
:101D00002000C0B23AF8100000283FD102226946F4
:101D10002000C0B2FFF792FB40212000C0B280003B
:101D2000C00010F58470FFF703FA2000C0B28000F5
:101D3000C00010F58470FFF7C7F90028F5D19DF8B1
:101D400000002100C9B22AF811002000C0B23AF800
:101D500010009DF8011011EB0021881E2100C9B26E
:101D60002AF811002000C0B23AF8100040F2EB51FE
:101D7000884206DB2000C0B2FFF7A2FC7FF47A7035
:101D8000ABE080205A492200D2B2885430002100B2
:101D9000C9B23AF8111080B2884201D2B14603E0CC
:101DA0002000C0B23AF810904A4692B229002000B2
:101DB000C0B2FFF743FB5DE02000C0B23AF810006C
:101DC000002837D1062269462000C0B2FFF736FB53
:101DD00040212000C0B28000C00010F58470FFF7E1
:101DE000A7F92000C0B28000C00010F58470FFF792
:101DF0006BF90028F5D19DF80000387068464178ED
:101E000079708178B970C178F97001792200D2B205
:101E10002AF812102100C9B23AF81110407910EBDB
:101E200001202100C9B22AF8110080203049220087
:101E3000D2B2885430002100C9B23AF8111080B2F1
:101E4000884201D2B14603E02000C0B23AF81090B7
:101E50004A4692B229002000C0B2FFF7EFFA09E02B
:101E6000494689B22000C0B2FFF732FB2000C0B261
:101E70002AF8109040212000C0B28000C00010F568
:101E80008470FFF755F92000C0B28000C00010F543
:101E90008470FFF719F90028F5D12000C0B23AF894
:101EA0001000B0EB09002100C9B22AF8110020008F
:101EB000C0B23AF81000002808D00D482100C9B27D
:101EC000415C51F00101E4B2015503E000200849F2
:101ED000E4B208551FFA89F94846BDE8F6870000C4
:101EE00078000020D0000020D20000207C000020DC
:101EF0009400002070477047704770470078704723
:101F000001707047002070477047704770470200AB
:101F1000002A02D00A00002A08D1DFF82406DFF8E0
:101F20002416C160DFF82016016103E0DFF81026F7
:101F3000D060116170470200002A02D00A00002A16
:101F400008D1DFF8FC05DFF804164161DFF8001660
:101F5000816103E0DFF8E825506191617047DFF8A7
:101F6000E02513889B05FAD50300002B02D00B0057
:101F7000002B06D1DFF8DC05D061DFF8DC0510624C
:101F800001E0D06111627047DFF8B42513889B052A
:101F9000FAD50300002B02D00B00002B06D1DFF88E
:101FA000BC055062DFF8B805906201E050629162B2
:101FB00070473EB50C000021694600220023C1E9AC
:101FC0000023C0B2002817D0022828D018D3042834
:101FD00029D020D306282ED029D3082848D039D399
:101FE0000A2857D053D30C285CD057D30E285ED084
:101FF00059D30F2868D074E000F0A0F800203EBD4F
:10200000002C03D0009400980830019001990098AA
:1020100000F0CFF8F3E7208800F023F9EEE700F0B6
:1020200032F92080EAE7208800F044F9E6E700F082
:1020300052F92080E2E7218889B2090AC9B24FF437
:102040009850FFF775F82188C9B24FF4A050FFF7F8
:102050006FF8D3E74FF49850FFF736F80500EDB26C
:102060004FF4A050FFF730F810EB05202080C5E7B3
:10207000DFF8CC0481782170C17861700179A1709A
:102080004179E1708079207100206071B6E700F03D
:1020900052F9B3E7200000F068F9AFE7200000F044
:1020A0008EF9ABE7AAE7207800F0C4F9A7E700F0C3
:1020B00033F901005FF0FF3249B2914202D15FF083
:1020C000FF309CE7207099E700F01AF901005FF0FB
:1020D000FF3249B2914202D15FF0FF308FE72070AA
:1020E0008CE75FF0FF308AE710B50C00C0B2002823
:1020F00008D002280FD00AD3042814D00FD3052803
:1021000015D018E0200000F0C8F9002010BD200014
:1021100000F0ECF9F9E7207800F028FAF6E700F093
:1021200039FA2070F1E7200000F039FAEDE72000DD
:1021300000F04BFAE9E75FF0FF30E7E700B585B064
:10214000062203A94FF41060FFF727F8042202A922
:102150004FF48070FFF721F8042201A94FF4A0602A
:10216000FFF71BF8042269464FF47060FFF715F87B
:1021700080210020FEF7DCFF0020FEF7A5FF0622ED
:1021800003A94FF41060FFF74BF8042202A94FF4A3
:102190008070FFF745F8042201A94FF4A060FFF713
:1021A0003FF8042269464FF47060FFF739F805B034
:1021B00000BD70B505000C000020FFF7BFFF002D2B
:1021C00025D00022002100E0491C080040B2082868
:1021D0000ADA080040B228568218100040B21128CE
:1021E000F2DB5FF0FF303BE000260CE0300040B255
:1021F000295C300040B2820041F6087010EBC2004A
:10220000FEF796FF761C300040B20828EEDB002C6B
:1022100025D00022002100E0491C080040B2082817
:102220000ADA080040B220568218100040B2112885
:10223000F2DB5FF0FF3013E000250CE0280040B235
:10224000215C280040B2820041F6086010EBC20019
:10225000FEF76EFF6D1C280040B20828EEDB002060
:1022600070BD10B504002100A4B2240A11F0F001E1
:102270004FF4A850FEF75CFF2100C9B24FF4B850EC
:10228000FEF756FF10BD10B50020002000204FF4CF
:10229000A850FEF719FF040014F0F0044FF4B850F2
:1022A000FEF712FFC0B280B2E4B214EB00242000AB
:1022B00080B210BD10B504002100A4B2240AC9B236
:1022C0004FF4B050FEF734FF2100C9B24FF4C050B4
:1022D000FEF72EFF10BD10B50020002000204FF4A7
:1022E000B050FEF7F1FE04004FF4C050FEF7ECFED4
:1022F000C0B280B2E4B214EB0024200080B210BD62
:1023000010B500244FF43850FEF7DEFEC00700D5AC
:102310000124200040B210BD80B500204FF4385099
:10232000FEF7D2FE10F03800302801D1012000E085
:10233000002040B202BD80B54FF43850FEF7C4FE15
:1023400010F07F000100C9B24FF43850FEF7F0FEE4
:102350004FF43850FEF7B8FE50F080000100C9B2CB
:102360004FF43850FEF7E4FE01BD80B5002102783D
:10237000012A02D151F0400101E011F0BF01427881
:10238000012A02D151F0380111E0C278012A08D1A6
:102390008078012802D151F0180108E051F00801BD
:1023A00005E08078012802D151F01001FFE7C9B2A1
:1023B0004FF43850FEF7BCFEFFF7BDFF01BD10B56E
:1023C000040000204FF43850FEF77EFE0100C9B231
:1023D000890911F0010121700100C9B211F0380121
:1023E000C9B2202901D0382902D10121617001E050
:1023F000002161700100C9B211F03801C9B2102981
:1024000003D0182901D0202902D10121A17001E0B7
:102410000021A170C0B210F03800C0B2082803D06B
:10242000182801D0202802D10120E07001E000200E
:10243000E07010BD10B5040000204FF43850FEF7D6
:1024400043FE0100480602D45FF0FF3024E011F0A3
:10245000C7012000C0B2012802D151F0300101E0D3
:1024600051F03801C9B24FF43850FEF761FEFFF762
:1024700062FF4FF43850FEF727FEE4B2012C04D17E
:1024800010F0300F06D0002006E010F0380F01D019
:10249000002001E05FF0FF3010BD10B504000622FF
:1024A00021004FF41060FEF7BBFE042214F10E0170
:1024B0004FF48070FEF7B4FE042214F10A014FF4C9
:1024C000A060FEF7ADFE0422A11D4FF47060FEF780
:1024D000A7FE2448A17C0170E17C4170217D8170C0
:1024E000617DC170A07D2049087010BD10B5040049
:1024F000062221004FF41060FEF74FFE042214F173
:102500000E014FF48070FEF748FE042214F10A0118
:102510004FF4A060FEF741FE0422A11D4FF470604D
:10252000FEF73BFE0F480178A1744178E174817891
:102530002175C07860750C480078A07510BD00004A
:102540004C000020F51E0008F71E0008F91E0008C8
:10255000FB1E0008051F0008091F00080B1F0008CC
:102560000D1F0008CC000020D700002010B504008B
:10257000002014F0C50F02D05FF0FF3009E000200A
:10258000FEF7A2FD04432100C9B20020FEF7D0FDF2
:10259000002010BD80B50020FEF796FD02BD10B5ED
:1025A000040021784FF4D850FEF7C2FD618889B24B
:1025B000090AC9B24FF4C850FEF7BAFD6188C9B222
:1025C0004FF4D050FEF7B4FD10BD38B504004FF401
:1025D000D850FEF779FD20704FF4C850FEF774FD17
:1025E0000500EDB24FF4D050FEF76EFD10EB052064
:1025F000608031BD7047704780B590499048FFF7C3
:10260000AEFC90499048FFF796FC90499048FFF740
:10261000BBFC90499048FFF77AFC01BD10B58F4C88
:10262000A01DFEF7FBFC14F10E00FEF701FD14F1F6
:102630000A00FEF707FD14F11200FEF70DFD02205F
:10264000A07521000020FFF74FFD10BDFEE780B50B
:10265000ADF50C7D42F6E060062281494FF4106032
:10266000FEF7DEFD02A90120FEF787FC7D497E4AC8
:102670000800FDF774FDFEF72BFBC0B2002808D060
:1026800001280AD002280CD003280ED0052810D02B
:1026900013E0764800F020F912E0754800F01CF9CC
:1026A0000EE0744800F018F90AE0734800F014F9DD
:1026B00006E0724800F010F902E0714800F00CF9F1
:1026C0004FF4FA5000E0401E010089B20229FADA04
:1026D000FEF7FEFA0100C9B20429CED1694800F024
:1026E000FBF801A8FEF79AFC01A89DF807100091DD
:1026F000837842789DF80410634800F0EDF8FEF707
:10270000B3FB0DF50D7D00BDF8B568465F4910229D
:1027100000F006F9FFF770FFFFF710FD6946012092
:10272000FFF747FC002802D1594800F0D5F8FFF721
:102730008EFF202341F2883201210020FEF7FCFEAB
:10274000002802D1534800F0C7F80020FFF705F831
:10275000401E06D07FF00401401A0AD0401E04D06B
:102760000BE04D4800F0B8F80AE04C4800F0B4F82F
:1027700006E04B4800F0B0F802E04A4800F0ACF840
:102780004FF44270FEF7A0FC00280ED0132810D0A2
:10279000142806D0182810D01A2812D01B2814D0BC
:1027A00017E0414800F098F816E0404800F094F82F
:1027B00012E03F4800F090F80EE03E4800F08CF840
:1027C0000AE03D4800F088F806E03C4800F084F854
:1027D00002E0344800F080F805B000BD80B50A0082
:1027E00092B201000020FFF702F8002820D0401E1E
:1027F0000AD00C380CD07FF01901401A10D0801F7D
:102800000AD0801E10D017E02D4800F065F813E0C4
:102810002C4800F061F80FE02B4800F05DF80BE069
:102820002A4800F059F807E0294800F055F803E07D
:10283000284800F051F8FFE701BD0000AD2D000869
:10284000ED2D00082F2E0008232E0008CB2D0008A8
:10285000072E0008F7250008F52500081C000020B9
:10286000340000201D2600084D260008C036000850
:1028700034360008CC3400081C3700087C370008C8
:102880003C38000830370008D83600088C3700087C
:10289000F0340008443700089C3700085036000820
:1028A0007C350008AC370008BC370008CC3700087E
:1028B00048380008DC370008EC370008FC3700080F
:1028C0006C36000888360008743400085837000851
:1028D000143500080C3800080EB4C0B5024603A831
:1028E00000210190009101AB0121044878440C3093
:1028F00000F065F806BC5DF810FB00BFF50D0000A8
:1029000062B38B0708D0521E11F8013B00F8013B5F
:1029100000F024808B07F6D1830740F0208000BFB1
:10292000103A07D330B4B1E83810103AA0E83810A4
:10293000F9D230BC530724BFB1E80810A0E8081052
:1029400044BF51F8043B40F8043BD20724BF31F8A0
:10295000022B20F8022B44BF0B7803707047121F24
:1029600017D35B0009D151F8043B20F8023B1B0C44
:10297000121F20F8023BF6D20BE051F8043B00F89E
:10298000013B1B0A20F8023B1B0C121F00F8013B05
:10299000F3D238BF121D521E24BF11F8013B00F8BC
:1029A000013BF8D8704770B505461C00084616462E
:1029B00004D016F8011BA847641EFAD170BD2DE99A
:1029C000FC4383B08146884617461D4607E0012335
:1029D0003A4641464846FFF7E6FF80467F1C387876
:1029E000E0B12528F3D17978BF1C252912D05829C8
:1029F0005AD0632915D0642918BF692918D06F29C6
:102A000052D0702956D073295BD0752918BF782908
:102A10004AD0E4E74046C8478046E0E705B0BDE855
:102A2000F0832868286050F8041B2860C9B2F1E7D9
:102A30002868286050F8046B2860002E03D52D21EB
:102A40004046C847804664216F2908BF082205D048
:102A500041F02000782814BF0A2210220B24642998
:102A6000304602D1002E48BF4042B0FBF2FC02FBD0
:102A70001C003030641EC3B23A2BA4BFA1F1510632
:102A800030180DF804005FEA0C0001D0002CECDCDB
:102A90000DEB0406D4F10B044046BDD016F8011B23
:102AA000C847641EFAD1B7E72868286050F8046B5D
:102AB0002860C9E728682860782150F8046B2860EE
:102AC000C2E72868286050F8046B2860304600F0A0
:102AD00009F8040040469FD016F8011BC847641E41
:102AE000FAD199E700F10103810704D010F8011B26
:102AF000820781B1FAD10268A2F10131914311F04C
:102B0000803104BF50F8042FF6E709BAB1FA81F119
:102B100000EBD100401CC01A704730B4002513E010
:102B200050F8042BD30744BFA9F101039A18091FD9
:102B3000042942F8045BFAD213468C0744BF15807F
:102B40009B1CC90748BF1D7050F8041B0029E7D122
:102B500030BC7047DFF88811086850F00100086049
:102B6000DFF880211368DFF88001034013600B68F1
:102B7000DFF8780103400B60086830F480200860BB
:102B8000106830F4FE0010605FF41F00DFF8601181
:102B900008607047DFF848110A6832F480320A6032
:102BA0000A6832F480220A60B0F5803F03D0B0F5A5
:102BB000802F05D009E0086850F48030086004E0F8
:102BC000086850F4A0200860FFE7704780B5002037
:102BD000009000200020312000F063F80099491C8B
:102BE00000910099B1F5A06F02D0C0B20028F2D0D8
:102BF000312000F056F8002801D0012000E000202C
:102C0000C0B202BD0022374B1A6832F47C1208436E
:102C1000104318607047C0B2364908607047002101
:102C2000304A1168890889000843106070472D48B0
:102C3000006810F00C00704700212A4A116831F03A
:102C4000F0010843106070470021264A116831F4F2
:102C5000E0610843106070470021224A116831F496
:102C6000605151EAC00111607047C9B2002904D017
:102C700022490A681043086004E020490A6832EAE1
:102C8000000008607047C9B2002904D01C490A68D6
:102C90001043086004E01A490A6832EA000008603C
:102CA00070470021002100210100C9B24909C9B2C1
:102CB000012902D10A49096806E0022902D10E4918
:102CC000096801E00F490968C0B210F01F00C14057
:102CD000C80701D5012000E00020C0B27047000005
:102CE00000100240041002400000FFF8FFFFF6FE53
:102CF00008100240600042422010024018100240BA
:102D00001C1002402410024010B586B0012141F28F
:102D10000500FFF7AAFFE020ADF8000003208DF8C2
:102D2000020018208DF80300444C6946200000F092
:102D300089F8E021200000F0E5F81020ADF800004F
:102D400003208DF8020010208DF803006946200052
:102D500000F078F81021200000F0D4F80020ADF841
:102D600004004FF48270ADF806000020ADF80800B2
:102D70000020ADF80A000020ADF80C004FF4007000
:102D8000ADF80E000820ADF810000020ADF81200DC
:102D90000720ADF814002A4C01A9200000F0B8F873
:102DA0000121200000F0D3F806B010BD10B50100DD
:102DB000234CC9B289B2200000F0D7F802212000CC
:102DC00000F0D7F80028F9D010BD70B504000D0050
:102DD000002604E02078FFF7E9FF641C761C300031
:102DE000290080B289B28842F4D370BD10B5144C6A
:102DF000200000F0BCF80020FFF7D8FF200000F012
:102E0000B6F8C0B210BD38B504000D0004E0FFF7FD
:102E1000EDFF2070641C6D1E280080B20028F6D1E2
:102E200031BD80B51021054800F06FF801BD80B5B7
:102E30001021024800F066F801BD000000080140C2
:102E400000300140F0B400220022002200220022C3
:102E50000022CB7813F00F03CA78D20601D58A7806
:102E600013430A78120620D0066800241AE0CA78B4
:102E7000482A16D1A740076113E0012717FA04F585
:102E80000A882A40AA420CD1A2000F259540AE43E1
:102E900013FA02F232431600CA78282AE7D1A74073
:102EA0004761641C082CE8D306600A88B2F5807F6D
:102EB00026DB4668002420E0012714F1080517FAF4
:102EC00005F50A882A40AA4216D1A2000F2595408E
:102ED000AE4313FA02F232431600CA78282A04D10C
:102EE00014F1080217FA02F24261CA78482A03D1A3
:102EF00014F1080297400761641C082CDCD346607B
:102F0000F0BC704789B20161704789B24161704776
:102F100010B40022038813F441530C884A881443E8
:102F20008A881443CA8814430A8914434A8914437B
:102F30008A891443CA89144323430380838B4FF245
:102F4000FF7213408383098A018210BC7047C9B2A3
:102F5000002904D0018851F04001018004E002887A
:102F60004FF6BF710A4002807047818170478089A7
:102F7000704700220089084201D0012000E00020B3
:102F8000C0B2704710B400220488DFF8EC309842D9
:102F900012D0DFF8FC2090420ED0B0F1804F0BD061
:102FA000DFF8D820904207D0DFF8D420904203D039
:102FB000DFF8D020904204D14FF68F7214404A8837
:102FC0001443DFF8C420904208D0DFF8C0209042BC
:102FD00004D04FF6FF421440CA88144304808A8804
:102FE00082850A88028598420FD0DFF8A42090429B
:102FF0000BD0DFF8A020904207D0DFF89C20904251
:1030000003D0DFF89820904201D1097A018601218E
:10301000818210BC7047C9B2002904D0018851F0E8
:103020000101018004E002884FF6FE710A4002802F
:103030007047D2B2002A03D082891143818103E014
:10304000828932EA01018181704700220022002238
:10305000028A0A408089014092B2002A04D089B2D3
:10306000002901D0012000E00020C0B2704789B2E1
:10307000C943018270470000002C01400004004059
:1030800000080040000C0040001000400014004008
:10309000003401400040014000440140004801402C
:1030A00080B53E49086850F0010008603C4A13684A
:1030B0003C48034013600B683B4803400B600868C2
:1030C00030F480200860106830F4FE0010605FF477
:1030D0001F003649086000F005F85FF000603449D1
:1030E000086001BD80B500F001F801BD82B000208C
:1030F0000190002000902949086850F48030086051
:10310000086810F4003000900198401C019000986D
:10311000002803D10198B0F5A06FF1D108688003B1
:1031200002D50120009001E00020009000980128C5
:1031300031D12048026852F0100202600268920801
:1031400092000260026852F00202026014480268B3
:10315000026002680260026852F4806202600268E3
:1031600032F47C120260026852F4E81202600A68CB
:1031700052F080720A600A689201FCD501688908E1
:1031800089000160016851F002010160016811F0DD
:103190000C010829FAD102B070470000001002406B
:1031A000041002400000FFF8FFFFF6FE0810024086
:1031B00008ED00E00020024080B5FFF7CBFC5FF493
:1031C0008030FFF7E7FCFFF701FDC0B2012828D1EE
:1031D000102000F07AF8022000F06EF80020FFF7CF
:1031E0002BFD0020FFF738FD4FF48060FFF72CFD2A
:1031F0005FF4E0115FF48030FFF704FD0120FFF77A
:103200000AFD3920FFF74DFD0028FAD00220FFF714
:1032100006FDFFF70CFD0828FBD101213D20FFF73B
:1032200024FD01BD80B500215FF0006000F08FF843
:103230004FF4C06000F056F800208DF801001C200B
:103240008DF8000000208DF8010000208DF80200AC
:1032500001208DF80300684600F049F801BDE0B593
:1032600001210120FFF70FFD0920ADF8040041F610
:103270001F40ADF800000020ADF806000020ADF8BA
:10328000020069465FF08040FFF77CFE01220121C9
:103290005FF08040FFF7CDFE01215FF08040FFF737
:1032A000BAFE07BD80B5FFF787FFFFF7BBFFFFF74B
:1032B0002BFDFFF7D4FF01BD0021DFF824201168AA
:1032C00011F03801084310607047DFF814100A68E5
:1032D00032F010020A600A6810430860704700006C
:1032E000002002401D4908431D4908607047002125
:1032F00000210F23C17800291ED01949096811F453
:10330000E061D1F5E061090AD1F10402CB404178D6
:1033100011FA02F281780B401A4312011149037825
:10332000CA540121027812F01F0291400E4A00781F
:10333000401142F8201009E00121027812F01F022A
:1033400091400A4A0078401142F820107047084A1C
:103350001140084307490860704700000000FA0563
:103360000CED00E000E400E000E100E080E100E0BE
:1033700080FFFF1F08ED00E0F8B5684618490E22EF
:10338000FFF7BEFAFFF738F9FFF78CFFFFF7BCF93C
:103390001448016840F2E9329142F9D300210160FA
:1033A0006846FFF79FFB010089B26846FFF716FAEF
:1033B000EEE780B501215FF08040FFF746FE01286F
:1033C0000CD101215FF08040FFF751FE06480168F3
:1033D000491C016003480168491C016001BD0000EF
:1033E0006C370008C4000020C000002070B40B003F
:1033F000002111480068C0010FD4080070BC70475C
:103400005D782D0225439C7826042E43DC78240623
:1034100034431B1D0460121F091D002AEDD0E0205B
:1034200000060468002CFAD01C78042AE8D2047044
:103430005B1C491C521EF0E7FCED00E030B5016852
:1034400084684218416802EB5103C9070BD54C440C
:1034500009E012F9011B12F8015B002904F8015B75
:1034600005D5491CF9D19A42F3D10C3030BD491E23
:10347000F1D5F8E720496E76616C696420736F635B
:103480006B65742073746174757320666F7220733A
:103490006F636B6574206F7065726174696F6E2005
:1034A0000A00000010B5074979441831064C7C44E5
:1034B000163404E00A68081D114488470146A142F9
:1034C000F8D110BD98000000B40000004669727386
:1034D00074204F63637570792049502066726F6D58
:1034E0002044485043207365727665720A000000DC
:1034F0005735353030206368697020696E697469AA
:10350000616C697A65207375636365737366756C46
:103510000A000000496E76616C6964206F70657204
:103520006174696F6E20696E2074686520736F63C3
:103530006B6574200A00000018B583B00300140006
:1035400000930191029469460520ABBE0122190047
:10355000201AAFF3008004B010BD0000BFF5FFFFDC
:103560005C0000007C00002000000000D1FEFFFF96
:10357000C0030000C400000000000020536F636B14
:10358000657420636C6F73656420756E6578706513
:10359000637465646C792E0A0000000080B58DF8B4
:1035A000000001226946012000F008F8012802D13C
:1035B0009DF8000002BD4FF0FF3002BD80B500282D
:1035C00002D400F003F802BD002002BD80B500293E
:1035D00001D1002002BD012801D0022802D1FFF74D
:1035E00005FF02BDFFF7A8FF02BD000000F00DF8C7
:1035F000002801D0FFF756FFAFF300800020AFF3A3
:103600000080FFF7B9FE00F002F80120704700F0DB
:1036100001B800000746384600F002F8FBE700005A
:1036200080B5AFF30080024A11001820ABBEFBE763
:103630002600020050726F63657373696E672044E1
:103640004843502070726F746F636F6C0A00000003
:10365000536F636B6574206973206E6F7420696E9D
:10366000697469616C697A6564200A003120627945
:10367000746520646174612073656E742053756392
:10368000636573730A00000031332062797465202A
:10369000646174612073656E742053756363657330
:1036A000730A000003490868002802D00868401E19
:1036B00008607047C800002080B5FFF7F3FF01BD28
:1036C000444843502050726F63657373696E67207E
:1036D0004661696C0A000000646863705F4970208D
:1036E0003D2025642C25642C25642C25640A0000CB
:1036F00038B504460D462846FFF750FFA84218BFCC
:103700000024204632BD0000434845434B5F4950EA
:103710005F434F4E464C49435400000044484350D9
:10372000204950204348414E4745440A00000000CC
:1037300064686370207375636365737366756C0A80
:1037400000000000736F636B65742030206F70653C
:103750006E65640A0000000054696D656F75742021
:103760006F63637572726564200A000048656C6C53
:103770006F2C776F726C64210A000000444843503C
:103780002053746F707065640A0000000202020228
:10379000020202020202020202020202534F434BE1
:1037A000305F6C697374656E65640A007768617474
:1037B00020746865206675636B3F0A00534F434B66
:1037C0005F4C495354454E0A00000000534F434B91
:1037D0005F434C4F5345440A00000000534F434B96
:1037E0005F46494E5F574149540A0000534F434BCF
:1037F0005F434C4F53494E470A000000534F434B21
:103800005F54494D455F574149540A00536F636BFC
:10381000657420697320627573790A0001488047D6
:1038200001480047A1300008553800087047FEE7FE
:10383000FEE7FEE7FEE77047704770476468637015
:10384000206572726F720000534F434B5F494E49BF
:10385000540A0000AFF30080AFF30080FFF7C6FE0C
:10386000FFF7E4BFFFF7E3BFFFF7E2BFFFF7E1BFFA
:10387000FFF7E0BFFFF7DFBFFFF7DEBFFFF7DDBFFA
:10388000FFF71ABFFFF7FEBFFFF7FEBFFFF7FEBF50
:10389000FFF7FEBFFFF7FEBFFFF7FEBFFFF7FEBF5C
:1038A000FFF7FEBFFFF7FEBFFFF7FEBFFFF7FEBF4C
:1038B000FFF7FEBFFFF7FEBFFFF7FEBFFFF7FEBF3C
:1038C000FFF7FEBFFFF7FEBFFFF7FEBFFFF7FEBF2C
:1038D000FFF7FEBFFFF7FEBFFFF7FEBFFFF7FEBF1C
:1038E000FFF7FEBFFFF7FEBFFFF7FEBFFFF7FEBF0C
:1038F000FFF7FEBFFFF75DBDFFF7FEBFFFF7FEBF9F
:10390000FFF7FEBFFFF7FEBFFFF7FEBFFFF7FEBFEB
:10391000FFF7FEBFFFF7FEBFFFF7FEBFFFF7FEBFDB
:10392000FFF7FEBFFFF7FEBFFFF7FEBFFFF7FEBFCB
:10393000FCFF000AFD001D57495A6E65740000ED3A
:103940000000081B0100083F0100087883688856C2
:1039500038C0A81F02FDFF1000C0A81F01C0A81F8B
:10396000010200808368885638EE00060102573550
:10397000353030FB0017F51E0008F71E0008F91E51
:103980000008FB1E0008FD1E0008011F0008F700CC
:0239900000C075
:040000050800385562
:00000001FF
